{
  "contractName": "CertificateContract",
  "abi": [
    {
      "anonymous": false,
      "inputs": [
        {
          "indexed": true,
          "internalType": "address",
          "name": "user",
          "type": "address"
        }
      ],
      "name": "CertificateCreated",
      "type": "event"
    },
    {
      "inputs": [
        {
          "internalType": "address",
          "name": "",
          "type": "address"
        }
      ],
      "name": "certificates",
      "outputs": [
        {
          "internalType": "bool",
          "name": "",
          "type": "bool"
        }
      ],
      "stateMutability": "view",
      "type": "function",
      "constant": true
    },
    {
      "inputs": [],
      "name": "createCertificate",
      "outputs": [],
      "stateMutability": "nonpayable",
      "type": "function"
    },
    {
      "inputs": [
        {
          "internalType": "address",
          "name": "user",
          "type": "address"
        }
      ],
      "name": "verifyCertificate",
      "outputs": [
        {
          "internalType": "bool",
          "name": "",
          "type": "bool"
        }
      ],
      "stateMutability": "view",
      "type": "function",
      "constant": true
    }
  ],
  "bytecode": "0x608060405234801561001057600080fd5b506102bc806100206000396000f3fe608060405234801561001057600080fd5b50600436106100405760003560e01c806216e526146100455780636b9afc9014610075578063b2db85f7146100a5575b600080fd5b61005f600480360381019061005a9190610223565b6100af565b60405161006c919061026b565b60405180910390f35b61008f600480360381019061008a9190610223565b6100cf565b60405161009c919061026b565b60405180910390f35b6100ad610124565b005b60006020528060005260406000206000915054906101000a900460ff1681565b60008060008373ffffffffffffffffffffffffffffffffffffffff1673ffffffffffffffffffffffffffffffffffffffff16815260200190815260200160002060009054906101000a900460ff169050919050565b60016000803373ffffffffffffffffffffffffffffffffffffffff1673ffffffffffffffffffffffffffffffffffffffff16815260200190815260200160002060006101000a81548160ff0219169083151502179055503373ffffffffffffffffffffffffffffffffffffffff167f78f27c111a2e7bb421940823aa6c5ec84b80c6dd5a84e940b6c4450d069b19e760405160405180910390a2565b600080fd5b600073ffffffffffffffffffffffffffffffffffffffff82169050919050565b60006101f0826101c5565b9050919050565b610200816101e5565b811461020b57600080fd5b50565b60008135905061021d816101f7565b92915050565b600060208284031215610239576102386101c0565b5b60006102478482850161020e565b91505092915050565b60008115159050919050565b61026581610250565b82525050565b6000602082019050610280600083018461025c565b9291505056fea2646970667358221220242708d7e5cdf2cd03495969825423ee1e77956a9883e2f01cfec4dc196b729064736f6c63430008110033",
  "immutableReferences": {},
  "source": "// SPDX-License-Identifier: MIT\npragma solidity >=0.4.22 <0.9.0;\n\ncontract CertificateContract {\n    mapping(address => bool) public certificates;\n\n    event CertificateCreated(address indexed user);\n\n    function createCertificate() public {\n        certificates[msg.sender] = true;\n        emit CertificateCreated(msg.sender);\n    }\n\n    function verifyCertificate(address user) public view returns (bool) {\n        return certificates[user];\n    }\n}\n",
  "sourcePath": "D:\\scrapnet\\blockchain\\contracts\\CertificateContract.sol",
  "compiler": {
    "name": "solc",
    "version": "0.8.17+commit.8df45f5f.Emscripten.clang"
  },
  "schemaVersion": "3.4.16",
  "updatedAt": "2024-04-30T13:25:40.949Z",
  "networkType": "ethereum",
  "devdoc": {
    "kind": "dev",
    "methods": {},
    "version": 1
  },
  "userdoc": {
    "kind": "user",
    "methods": {},
    "version": 1
  }
}